:020000040800F2
:10000000483B002001010008190F00089B0D000863
:100010007D0E000851020008AD3F000800000000FE
:100020000000000000000000000000003D3E00084D
:10003000E903000800000000C30100083D1F00089C
:100040001B0100081B0100081B0100081B01000820
:100050001B0100081B0100081B0100081B01000810
:100060001B0100081B0100081B0100081B01000800
:100070001B0100081B0100081B0100081B010008F0
:100080001B0100081B0100081B0100081B010008E0
:100090001B0100081B0100081B0100081B010008D0
:1000A0001B0100081B0100081B0100081B010008C0
:1000B0001B0100081B0100081B0100081B010008B0
:1000C0001B0100081B0100081B0100081B010008A0
:1000D0001B0100081B0100081B0100081B01000890
:1000E0001B0100081B0100081B010008DFF80CD0F1
:1000F00000F044F800480047ED400008483B00206D
:100100000648804706480047FEE7FEE7FEE7FEE7B1
:10011000FEE7FEE7FEE7FEE7FEE7FEE78D3E0008AE
:10012000ED00000872B6704762B67047EFF31080BA
:1001300072B6704780F31088704730BF704720BF99
:100140007047B0FA80F0704790FAA0F0B0FA80F0F3
:10015000704790FAA0F07047D2B201E000F8012B8E
:10016000491EFBD270470022F6E710B513460A4637
:1001700004461946FFF7F0FF204610BD064C074D18
:1001800006E0E06840F0010394E807009847103467
:10019000AC42F6D3FFF7AEFF8C430008AC43000837
:1001A00018484FF0FF010170002080F309881648BD
:1001B000016881F3088815484FF08051016062B6EC
:1001C000FEE772B6EFF3098028B1203880E8F00F1F
:1001D0000F490968086000B50E4880475DF804EBD8
:1001E0000D480E490A78027009480D490A680260F4
:1001F000106890E8F00F203080F309884EF0040E6C
:1002000062B6704722ED00E03000002004ED00E00F
:10021000FC000020111C00088E0000208F00002030
:100220000001002010B500F005F8BDE8104000F016
:10023000B5BD000010B500F0EDFA04490968BDE84D
:100240001040B0FBF1F001F091BE000060430008E7
:10025000FEE70000054910B50020486000F0A6F850
:1002600000F006F8BDE8104000F086B8100000204D
:100270002DE9F041104D002427462C806C80AC60A5
:10028000EC606C61AC612C61FFF750FF804600268A
:100290006C6100F049F800F057F86869761C360484
:1002A0000744360CF4D0C5E904744046AC61BDE89F
:1002B000F041FFF73FBF000010000020034909692B
:1002C000884201D9401A7047002070471000002072
:1002D00010B5FFF72BFF04494C69FFF72BFF2046B1
:1002E000BDE81040FFF7EABF1000002010B5FFF78F
:1002F000EFFF0446FFF71AFF034A00215161FFF7A1
:1003000019FF204610BD00001000002010B5FFF7B7
:100310000DFF04498C69FFF70DFF2046BDE8104032
:10032000FFF7CCBF1000002010B5064C2088401C01
:100330002080608810B900F051F8A0606088401CEF
:10034000608010BD1000002010B50A4C6088401E6F
:100350000004000C60800CD100F040F8E060A1685F
:10036000401A6169814200D26061A169814200D274
:10037000A06110BD1000002010B5FFF7D7FE0446A5
:10038000FFF7D2FF1021054800F079FDFFF7DCFFF1
:100390002046BDE81040FFF7CDBE0000EC0800206D
:1003A000014948607047000010000020094810B55E
:1003B000016841F0807101600748002141600168D7
:1003C00041F00101016000F025FABDE81040FFF79F
:1003D000E7BF0000FCED00E0001000E001484068CD
:1003E00070470000001000E0704770472DE9F84F9B
:1003F000DFF8B891002409F1040A0AF1040B23463E
:100400000F270BF1040EC9E00125A5402A40AA429E
:100410007DD1674ED1F804C0ACEB0608B44532D0AC
:1004200014DCBCF1030F3AD009DCBCF1000F2AD078
:10043000BCF1010F1CD0BCF1020F31D11DE0BCF1A9
:10044000110F17D0BCF1120F2AD119E0B8F5881F8F
:1004500019D006DCB8F5803F15D0B8F5801F1FD144
:1004600011E0B8F5001F0ED0B8F5041F18D10AE04E
:10047000CB6815E0CB681B1D12E0CB6808330FE09A
:10048000CB680C330CE08B682BB1012B4FF00803C9
:1004900003D0456104E0042302E0056100E000238D
:1004A000FF2A01D8064601E000F104064FEA840560
:1004B00001D9A5F12005D6F8008007FA05FC28EA45
:1004C0000C0803FA05F548EA0508C6F800804D68EF
:1004D000ED0062D5374DAE6946F00106AE61AD69FB
:1004E00024F0030605F001050095334D06EB050CDD
:1004F000DCF80850A607360F07FA06F825EA0805C3
:10050000DFF8B880404503D14FF0000817E044E021
:10051000DFF8AC80404502D14FF001080FE0DFF872
:10052000A480404502D14FF0020808E0DFF898802F
:10053000404502D14FF0030801E04FF0040808FAEB
:1005400006F848EA0508CCF808804D68D9F800603C
:10055000ED034D4601D5164300E096432E604D68ED
:10056000DAF80060AD03554601D5164300E0964326
:100570002E604D68DBF80060ED025D4601D5164344
:1005800000E096432E604D68DEF80060AD027546CF
:1005900001D5164300E096432E60641C0D682A4680
:1005A000E5407FF431AFBDE8F88F00000004014062
:1005B000000011100010024000000140000801403E
:1005C000000C014000100140001401400AB101611B
:1005D00070470904FBE7000001488068704700008D
:1005E00000000020074810B5016841F010010160CB
:1005F000032000F067F80F2000F006F800F024F860
:10060000002010BD0020024070B50D4D04464FF48F
:100610007A712878B1FBF0F00A490968B1FBF0F073
:1006200000F0E4FA48B9102C07D200222146501EEF
:1006300000F028F800206C6070BD012070BD000043
:10064000000000200C0000200C4808B5816941F032
:1006500001018161816901F001010091C16941F0ED
:100660008051C161C06900F0805000900448416829
:1006700021F0E06141F00071416008BD00100240CE
:1006800000000140F0B40E4B1B680C46C3F302237C
:10069000C3F10705042D00D90425191D072901D22E
:1006A000002300E0DB1E012606FA05F1491E214069
:1006B00099409E40761E16403143F0BC03F080BC4A
:1006C0000CED00E0064900F0070208684FF6FF0352
:1006D000184040EA0220034A1043086070470000B7
:1006E0000CED00E00000FA052DE9F0470F4605008B
:1006F00061D0434E306800F00700B84209D230683C
:1007000020F0070038433060306800F00700B8423E
:1007100051D128683B4C810712D5400703D560684A
:1007200040F4E06060602878000703D5606840F41A
:10073000605060606068A96820F0F0000843606065
:100740002878C00728D06868012810D021680228BE
:1007500010D0890700292EDA616821F003010143D6
:100760006160FFF739FF804641F288390DE021686A
:100770008903EFE78901EDE7FFF72EFFA0EB080102
:10078000494502D90320BDE8F0876068696800F038
:100790000C00B0EB810FEFD1306800F00700B842D9
:1007A0000BD9306820F0070038433060306800F023
:1007B0000700B84201D00120E5E72878400705D5B9
:1007C0006068E96820F4E06008436060287800070A
:1007D00006D56068296920F4605040EAC100606075
:1007E00000F03EF86168084AC1F30311515CC8404B
:1007F0000649086006480068FFF706FF0020C2E7C8
:100800000020024000100240004300080C000020BD
:100810000400002001480068704700000C00002020
:100820000448054900684968044AC1F30221515C43
:10083000C84070470C000020001002401043000820
:100840000448054900684968044AC1F3C221515C63
:10085000C84070470C000020001002401043000800
:1008600012A185B00FC98DE80F0014A0144A0068CA
:1008700004905168134801F00C03042B10D0082B8E
:100880000ED1C1F38343C9031DF803000AD5516893
:1008900004AAC1F34041515C0A4A5043B0FBF1F055
:1008A00005B0704708494843FAE700000203040511
:1008B000060708090A0B0C0D0E0F101001020000AC
:1008C0000010024000127A0000093D002DE9F84FA7
:1008D000040070D02078C04DC00749D06868C0F3CC
:1008E0008100012807D06868C0F38100022809D17F
:1008F0006868C00306D52868800339D56068002879
:10090000E7D035E06068B0F5803F0BD010B1B0F5AE
:10091000A02F11D0286820F480302860286820F4A7
:10092000802002E0286840F480302860606890B140
:10093000FFF752FE06460AE0286840F4802028604F
:10094000F0E700BFFFF748FE801B642873D82868D3
:100950008003F7D50CE0FFF73FFE064605E000BF39
:10096000FFF73AFE801B6428F0D828688003F7D48C
:1009700020789A4E80074FF001094FF0000839D5D2
:10098000686810F00C0F07D06868C0F38100022877
:1009900009D16868C00306D42868800714D5206987
:1009A000012808D110E02069B0B1C6F80090FFF727
:1009B00013FE074605E00AE1FFF70EFEC01B022802
:1009C000C4D828688007F7D52868616920F0F80046
:1009D00040EAC10028600DE0C6F80080FFF7FCFD8A
:1009E000074604E0FFF7F8FDC01B022823D828685B
:1009F0008007F7D4207800072CD57948A169D9B1B0
:100A0000C0F80090FFF7E8FD074604E0FFF7E4FDBB
:100A1000C01B02280FD8686A8007F7D571484FF4C9
:100A2000FA510068B0FBF1F0009000BF0098411E41
:100A30000091FAD20EE080E0C0F80080FFF7CCFD14
:100A4000074604E0FFF7C8FDC01B022875D8686A96
:100A50008007F7D42078400760D5E8690027C000F8
:100A600008D4E86940F08050E861E869012700F0A7
:100A7000805000905C480168C90513D40168834622
:100A800041F480710160FFF7A7FD824606E000BFD8
:100A9000FFF7A2FDA0EB0A0064284ED8DBF80000A7
:100AA000C005F5D5E06801280AD008B1052813D0A3
:100AB000286A20F001002862286A20F0040002E081
:100AC000286A40F001002862E06841F2883B98B152
:100AD000FFF782FD82460BE0286A40F0040028629E
:100AE000EEE700BFFFF778FDA0EB0A0159455AD8A1
:100AF000286A8007F6D50CE0FFF76EFD824605E018
:100B0000FFF76AFDA0EB0A0159454CD8286A800717
:100B1000F6D41FB1E86920F08050E861E06988B33D
:100B20006968C1F38101022944D00228C6F86080B7
:100B300004D0FFF751FD044638E034E0FFF74CFDE8
:100B4000074604E0FFF748FDC01B02282BD82868A1
:100B50008001F7D4206AB0F5803F05D16868A168AC
:100B600020F4003008436860D4E90801084369684C
:100B700021F4741108436860C6F86090FFF72CFDFB
:100B8000044606E025E000BFFFF726FD001B022813
:100B900009D828688001F7D51BE000BFFFF71CFDCE
:100BA000001B022802D90320BDE8F88F28688001C5
:100BB000F4D40EE00128F7D06868226A00F480318E
:100BC000914204D1616A00F47010884201D0012082
:100BD000EAE70020E8E7000000100240000042427F
:100BE000800442420C0000200070004010B5401EFE
:100BF000B0F1807F01D3012010BD4FF0E02460618F
:100C00000F21601703F0DCF90020A06107202061AC
:100C1000002010BD70B5040004D094F83D000025FC
:100C200010B106E0012070BD84F83C50204600F071
:100C300023F8242084F83D002068C16821F4005185
:100C4000C160204603F024F92068016921F4904135
:100C500001612068416921F02A0141612068C16871
:100C600041F40051C1602564202084F83D0084F8DF
:100C70003E00002070BD000030B585B00024009417
:100C800001940294039400681449884224D11448C2
:100C9000816941F480418161816901F4804104915D
:100CA000816941F00401816180690E4D00F004000A
:100CB00004904FF4007000900220019003200390F4
:100CC00069462846FFF792FB2815CDE900046946DE
:100CD00028460294FFF78AFB05B030BD003801407A
:100CE00000100240000801402DE9F843044690F846
:100CF0003D001F4616460D4620284CD1C5B1BEB159
:100D000094F83C00012846D0012084F83C004FF0C4
:100D10000008C4F84080212084F83D00FFF75CFC07
:100D2000A6848146E684A068B0F5805F03D004E025
:100D30000120BDE8F883206928B12E465FF0000548
:100D400084F83C800EE00026FAE78021204603F07C
:100D5000FBF8A0B9AEB116F8010B21684860E08C31
:100D6000401EE084E08C4B464FF0000200970028C4
:100D7000EBD14FF04001204603F0E6F830B10320FC
:100D8000D7E735F8020BC0F30800E6E7202084F827
:100D90003D000020CDE70220CBE7FEE72DE9F04142
:100DA00086B000242448009401940294039481693D
:100DB00041F010018161816901F0100104918169A4
:100DC00041F020018161816901F020010491816974
:100DD00041F008018161816901F008010491816994
:100DE00041F0040181618069144F00F004004FF468
:100DF00000550490002229463846FFF7E7FBDFF84C
:100E00004080002201214046FFF7E0FB00950226CA
:100E100001250396CDE9015469463846FFF7E6FA05
:100E200003960095CDE9015469464046FFF7DEFA86
:100E300006B0BDE8F0810000001002400010014043
:100E4000000C01400C4810B50A4901604FF4E13133
:100E50004160002181600C22C160C0E904128161FF
:100E6000C161FFF7D7FE002803D0BDE81040FFF7AF
:100E7000BCBA10BD00380140A8080020FEE70A46B1
:100E8000002100F023B800000D480E490246C0E9D9
:100E9000001200218160C160016141618161C16115
:100EA00001620163C162416200F148018163C16373
:100EB0004FF4A05101644164034802607047000090
:100EC000FC080020484541502C00002010B5002AA5
:100ED00021D000281FD000244FEA04035B1C41EA04
:100EE0000424042BFAD310F0030305D10BE000BF58
:100EF000521E00F8011B5B1C002A0CD0042BF7D3F8
:100F000001E010C0121F042AFBD202E000F8011B0E
:100F1000521E002AFAD110BDFEE770470248006851
:100F2000002800D0004770474400002010B5044658
:100F300000F0BEF8464800210A22017045480170C1
:100F400045480170454801604548016045480170C9
:100F500045480170454801704548016045480160B9
:100F6000454801604548017045480068B0FBF2F013
:100F7000444A1060444A106830B14448006818B1CF
:100F8000126802C0521EFCD1414801604148016014
:100F900041480160414801604148016041480160A9
:100FA000414801604148017001F0E0FC01F092FD10
:100FB000204600F0F1FF2088002847D1204601F0AC
:100FC000E5FA2088002841D1204601F0EBFA20887C
:100FD00000283BD1204601F07FFB2088002835D136
:100FE000204601F0E9FC208800282FD1204601F09E
:100FF00099FE2088002829D1204602F005F9208892
:10100000002823D1204601F035FA208800281DD180
:10101000204601F0CDF82088002817D1204602F0A4
:101020005FFD2088002811D1204602F04BF820886F
:1010300000280BD1204602F0A7FD2088002805D10A
:1010400000F0A8FFBDE81040FFF767BF10BD00002B
:101050005800002060000020A8000020FC000020B4
:10106000000100208E0000208F0000209000002052
:101070009C000020A0000020A4000020B000002060
:1010800060430008AC0000203C43000838430008DF
:10109000380000203C0000204000002044000020D8
:1010A000480000204C00002050000020DE000020FE
:1010B00030B5094B0020094A0446196801E010C107
:1010C000401C1568A842FAD31868054900EB850052
:1010D000001F086030BD0000384300083C43000892
:1010E000300000201A4810B5007801282FD1FFF7F2
:1010F0001DF8184A0446117829B1491E11F0FF0065
:10110000107022D103E0BDE81040FFF713B8124879
:101110000078D0B901F018FC10490870104900EBB4
:10112000400051F820100F4801600F4800688142CC
:101130000BD051F8900F401C08600C480168491C06
:1011400001600B494FF0805008602046DBE710BD7E
:101150006000002058000020A80000208F00002020
:101160007033002000010020FC000020D40000208B
:1011700004ED00E0164810B50078002826D1154887
:101180000078002822D1FEF7D1FF044601F0DCFBF5
:1011900011490870114900EB400051F82000104936
:1011A00008601049096888420BD050F8901F491C0C
:1011B00001600D480168491C01600C494FF08050E6
:1011C00008602046BDE81040FEF7B4BF10BD000027
:1011D00058000020A80000208F000020703300205D
:1011E00000010020FC000020D400002004ED00E0FD
:1011F00070B504461248007810B146F662501DE002
:1012000010480078012802D045F6896016E00E4D9E
:101210002878FA2802D345F209200FE0FEF786FF6E
:101220000646FFF781F82878401C287001F01AFD67
:10123000FFF78AF83046FEF77DFF0020208070BD62
:101240005800002060000020A80000202DE9F04197
:1012500016460C460546FEF769FF0746FFF764F899
:1012600029460D480025012901D0057001E0012122
:1012700001700A480CB1046005E009490A220968B6
:10128000B1FBF2F10160FFF75FF83846FEF752FF5D
:101290003580BDE8F0810000B0000020AC000020E7
:1012A0006043000870B504461848007810B146F64F
:1012B000655029E016480078012802D045F689607B
:1012C00022E0144D287890B1FEF730FF0646FFF774
:1012D0002BF82878401E10F0FF0028700AD0FFF786
:1012E00033F83046FEF726FF46F663500CE046F62C
:1012F000645009E001F0C4FCFFF726F83046FEF721
:1013000019FFFFF737FF0020208070BD5800002034
:1013100060000020A800002070B50F4D044628781A
:1013200018B145F68A60208070BD01F00DFB0B49B5
:1013300008700B4908700B4900EB400051F8200081
:10134000094908600949086001202870FEF728FF54
:1013500043F69920E7E70000600000208F0000209E
:101360008E0000207033002000010020FC000020CF
:101370002DE9F0410646FEF7D9FE0546FEF7D4FFFB
:101380002E48002404602E4804802E4804802E48F5
:1013900004602E4804602E4804602E4804602E48E5
:1013A00004602E480481FEF7CFFF2846FEF7C2FEF8
:1013B000FEF7BCFE0746FEF7B7FF2948056818E0B0
:1013C000FEF7B4FE0746FEF7AFFFC5F8B440C5F818
:1013D000B84045F8784F2C63AC61AC82EC826C620B
:1013E000AC62FEF7FBFF45F8200FA5F134008481C5
:1013F000AD6AFEF7A9FF3846FEF79CFE002DDFD14F
:10140000FEF794FE0746FEF78FFF1648056806E0D4
:10141000FEF78CFE0746FEF787FFAC85AD69FEF749
:1014200093FF3846FEF786FE002DF1D102F072FAE6
:1014300002F078FC3480BDE8F081000074000020E8
:101440006E000020BE000020D0000020E40000203C
:10145000EC0000205C000020A0000020643300208D
:10146000D800002094000020F8B5044669462448BE
:1014700000F0A4FBBDF8000058BB6A460021022022
:1014800000F0FAFBBDF8000018BBFEF74FFE074660
:10149000FEF74AFF1B4E00253560FEF755FF384624
:1014A000FEF748FE184919480A6803689A4202D9AB
:1014B000B2FBF3F010B90A21B2FBF1F06A46002149
:1014C00000F0DAFB69460E4800F0F2F9BDF80000C2
:1014D00008B12080F8BDFEF729FE0746FEF724FF7D
:1014E0000B480C490560306808600B490120087002
:1014F000FEF72AFF3846FEF71DFE2580F8BD0000E6
:1015000080360020C0000020604300084C430008E3
:10151000D0000020C4000020CC0000200248006859
:10152000002800D000477047480000202DE9FF4FF9
:1015300083B004467248DDE91785DDE9109600782E
:10154000DDF854A0139F10B147F24A102AE04CB1C5
:10155000059850B166B16B48006887420BD246F6D9
:1015600030601FE047F2AD101CE047F24F1019E069
:1015700046F62F6016E01298B84202D346F6316064
:1015800010E046F27320B9F1200F0BD25FEA090197
:1015900003D0B9F11F0F02D008E05B4900E05B49BE
:1015A0008C4203D0288007B0BDE8F08F204601F0C0
:1015B0003BFE4FF0000BA5F800B05FEAC8700AD000
:1015C0005FEA887007D5304600215A4601E004C022
:1015D000491CB942FBD31298CDE9007806EB80058F
:1015E000DDE905012B46324600F0B0FA0599A1620B
:1015F0000699E1620499216284F83790C4F854A0F6
:10160000A56020605FEA0A0024D0A0651698A76351
:1016100066626060A4F83C800020594604EB8002BA
:10162000401CD16710F0FF00F8D004F16400149959
:1016300001F006F8204600F075F8FEF777FD064643
:10164000FEF772FE324D2878401CC0B22870012887
:1016500003D004E02F480068D7E701F003FBFEF752
:1016600073FE3046FEF766FD94F8370001F084F90A
:10167000204601F075FA204601F098FD26490888B9
:10168000401C088025480078012821D0FEF74EFD37
:101690000446FEF749FE2878401E10F0FF0129702D
:1016A0000ED101F0EDFA1E48008848B1FEF74CFE5D
:1016B0002046FEF73FFD07B0BDE8F04F01F0AEBA9F
:1016C000FEF742FE07B02046BDE8F04FFEF732BD00
:1016D000FEF72CFD0446FEF727FE2878401E10F08A
:1016E000FF01297001D101F0CBFAFEF72DFE204653
:1016F000FEF720FD07B0BDE8F04FFFF73BBD00004F
:10170000580000205C4300089C320020D4310020A7
:10171000A8000020AC000020DC00002060000020B9
:101720006C00002002490968002900D00847704772
:10173000380000202DE9F041044652480E4600785A
:1017400010B147F24E100AE04F48844202D147F2EE
:101750004C1004E04D48844204D147F24D100880FB
:10176000BDE8F0815CB9FEF7E1FC0546FEF7DCFD63
:1017700047480468FEF7E8FD2846FEF7DBFCFEF765
:10178000D5FC0746FEF7D0FD424D2878401CC0B27C
:101790002870012801D101F065FAFEF7D5FD384621
:1017A000FEF7C8FC94F8360008283DD2DFE800F0C8
:1017B00004080C0C1C080C0C204601F005FA13E080
:1017C000204602F08BF80FE0204602F087F894F8EC
:1017D0003400072808D2DFE800F0070407040404F7
:1017E0000400204601F023F804F1640000F00EFF2D
:1017F000204600F055F8204601F0EAFC264908880A
:10180000401E0880204601F00FFDFF2084F83600BE
:10181000FEF78CFC0446FEF787FD2878401E10F08A
:10182000FF00287021D022E0FEF780FC0446FEF77E
:101830007BFD2878401E10F0FF0028700CD101F0CD
:101840001FFA1648008838B1FEF77EFD2046FEF7E5
:1018500071FC01F0E3F904E0FEF776FD2046FEF7A7
:1018600069FC46F62D6030807AE701F009FAFEF750
:101870006BFD2046FEF75EFC00203080BDE8F041A5
:10188000FFF778BC58000020D43100209C320020A3
:10189000FC000020A8000020DC0000206C000020DC
:1018A00002490968002900D0084770473C00002021
:1018B0007FB50D460446FEF739FC0646FEF734FDBB
:1018C0001CB114480068844208D1FEF73DFD304643
:1018D000FEF730FC47F2571028807FBDFEF734FD3D
:1018E0003046FEF727FC0C48007858B10020CDE9BF
:1018F000020500900346024601902146074800F089
:101900008BFC7FBD04B029462046BDE8704001F045
:101910009FBD0000FC000020580000205452455399
:1019200002490968002900D008477047400000209C
:101930002DE9F0478146574814461E4600788846F0
:1019400010B146F2AE1006E0080006D0B1F5004F27
:1019500003D045F6256018803DE0002704B12760DC
:10196000FEF7E4FB8246FEF7DFFC4B4D2968486C2E
:10197000D8B1401E804648640CB1086C2060FEF768
:101980002DFD29680A6C801AC1F8A400D1F8A8209E
:10199000824201D2C1F8A800FEF7D6FC5046FEF7FD
:1019A000C9FB37804046BDE8F0875FEA084007D5AD
:1019B000FEF7CAFC5046FEF7BDFB46F2B01009E048
:1019C0003648017849B1FEF7BFFC5046FEF7B2FB3E
:1019D00046F6635030800020E5E701218046017023
:1019E00001F040F9FEF7B0FC5046FEF7A3FB0021E2
:1019F0004B460722084600F07BFEFEF797FB814628
:101A0000FEF792FC98F80010491E11F0FF0188F8CB
:101A1000001001D101F034F9FEF796FC4846FEF7BC
:101A200089FBFFF7A7FBFEF781FB8046FEF77CFCF6
:101A3000286890F8351031B1012916D003291AD041
:101A400046F62E601BE074B1006C2060FEF7C6FC09
:101A500029680A6C801AC1F8A400D1F8A820824233
:101A600001D2C1F8A80037800AE00CB1006C2060F8
:101A700046F2A91003E004B1276047F2D920308074
:101A80002868446CFEF760FC4046FEF753FB204696
:101A900089E7000058000020FC000020A80000207A
:101AA0002DE9F0470546274816460F4600781C46A4
:101AB00010B147F259100AE046F2D5203FB136B1D5
:101AC000FEF734FB8146FEF72FFC1DB104E01880C1
:101AD000BDE8F0871C4805684FF00008286858B139
:101AE00095F83C00C00713D0FEF72EFC4846FEF7E1
:101AF00021FB0020696A1AE0FEF726FC4846FEF743
:101B000019FBC7F8008047F25210C6F800800AE0BF
:101B1000FEF71AFC4846FEF70DFBC7F8008047F2B7
:101B20005410C6F800802080D2E7401C091D0A68C6
:101B3000002AFAD03860A96B081A3060A4F8008037
:101B4000C6E7000058000020FC00002010B5029CF1
:101B500002EB84024FF0807442E90204164842F816
:101B60000C0C4FF0123042F8100CA2F114004FF0A0
:101B7000023240E903134FF0113140F8101CD1003C
:101B800040F8141C4FF0093140F8181C910040F83F
:101B90001C1C4FF007314FF0033440F8201C61004B
:101BA00040F8241C4FF0053140F8281D5100C0E9D1
:101BB000092440F8041D10BD513500081FB5104A16
:101BC000904202D147F25B1004E00E4A904203D1EA
:101BD00047F25C1008801FBD0B4A127852B10022F8
:101BE000CDE902210146009213460192074800F018
:101BF00013FB1FBD04B0BDE8104001F079BD00002B
:101C0000D43100209C3200205800002054535553FA
:101C100070B51548006800B18047FEF7DFFB134C34
:101C2000134A21681268914207D0D1F89830C31A3C
:101C300041F8943F8D682B448B60C2F89800FEF702
:101C400055FB2168D1F8B420824201D2C1F8B4001A
:101C5000084AD1F8B8301068834201D2C1F8B80000
:101C60000020106070BD00004C000020FC0000202F
:101C700000010020A40000202DE9F04180463648F4
:101C80000F461546007810B147F2752020E0334C1E
:101C9000207810B146F663501AE047B1022F06D003
:101CA000042F07D0082F02D045F6256010E0B8F1C8
:101CB000000F0BD0FEF73AFA0646FEF735FB207808
:101CC000401CC0B22070012805D006E047F27E20FB
:101CD0001080BDE8F08100F0C5FFFEF735FB30460F
:101CE000FEF728FA1E4E01212B4630683A4680F84E
:101CF0003610414601F086FD288898B1FEF716FAA5
:101D00000546FEF711FB2078401E10F0FF01217000
:101D100001D100F0B5FFFEF717FB2846BDE8F04102
:101D2000FEF708BA306800F04FFFFEF7FFF90646ED
:101D3000FEF7FAFA2078401E10F0FF00207001D163
:101D400000F09EFFFEF700FB3046FEF7F3F9FFF7C9
:101D500011FA00202880BCE758000020A8000020CD
:101D6000FC0000202DE9F0475C4EDDE90854367890
:101D700016B147F27520ABE0DFF864A19AF8006075
:101D800016B146F66350A3E015F00E0647F27E2921
:101D900045F6256705D0022E03D0042E06D0082E66
:101DA00007D11BB912B909B900287DD035F01E0C36
:101DB00002D02780BDE8F087C5F3001547F2792CE3
:101DC00047F278284FF47A773DB142F20F75A94275
:101DD00012D900BFA4F800C0ECE7BB4202D347F21F
:101DE0007B2075E03B2A02D947F27A2070E03B293C
:101DF000F0D8632802D804E0B84202D3A4F80080E7
:101E0000D8E7384D4FF4FA7CC1EB01112D68BCFBCB
:101E1000F5FC63446B43B3FBF7F34FF4616778431E
:101E200000EB8100104400FB0537EFB3FEF77EF9AD
:101E30008046FEF779FA9AF800005546401CC0B279
:101E40008AF80000012801D100F00CFFFEF77CFAAF
:101E50004046FEF76FF9DFF8908001212346D8F85D
:101E60000000324680F83610394601F0CBFC20885D
:101E700098B1FEF75BF90446FEF756FA2878401E43
:101E800010F0FF01297001D100F0FAFEFEF75CFAB4
:101E90002046BDE8F047FEF74DB9D8F8000000F045
:101EA00093FEFEF743F900E014E00646FEF73CFA25
:101EB0002878401E10F0FF00287001D100F0E0FEED
:101EC000FEF742FA3046FEF735F9FFF753F90020E6
:101ED00020806FE7A4F800906CE700005800002015
:101EE000A800002060430008FC00002000B585B079
:101EF00000F01CF8FEF772FA04AA00210392009188
:101F0000CDE9011006480749002300781A4600EB86
:101F1000400001EB8001044800F07EF905B000BDEF
:101F20008E000020703300205449434B0248006863
:101F3000002800D0004770475000002010B5FEF781
:101F4000F5F80446FEF7F0F907490878401C0870D8
:101F5000FEF7FAF92046FEF7EDF8FFF7C7FFBDE8F8
:101F60001040FFF7BFB80000580000204FF0E021FC
:101F7000401E48610648026822F07F4202600869FC
:101F800040F005000861086940F0020008617047F0
:101F900020ED00E070470000034A00211160034A71
:101FA0001180018070470000780000207C00002034
:101FB0002DE9F05F9A4690460D4604460A9FFEF7CB
:101FC000B5F88346FEF7B0F95FEA080024D001288F
:101FD00007D0B0F5004F1FD06FF4004118EB010F90
:101FE00012D1206A30EA0500C4E9080A208A04F107
:101FF00008064FF0000990B14D4D2878401CC0B242
:102000002870012815D016E0FEF79EF95846FEF715
:1020100091F845F625606CE0206A2843E4E7FEF776
:1020200093F95846FEF786F8A7F80090206ABDE8B5
:10203000F09F00F017FEFEF787F95846FEF77AF892
:10204000366833E090F88810766801F00F010129B6
:102050001BD0022921D004290DD0082910D0FEF769
:1020600065F80446FEF760F92878401E10F0FF007E
:1020700028702AD036E0216AD0F88020114009E08B
:10208000216AD0F8802011400BE0D0F88010236A3C
:102090000A4699438A4205D007E0D0F88010226AA8
:1020A000914311B1524600F047F816B1B0680028CC
:1020B000C8D1FEF73BF80646FEF736F92878401EF1
:1020C00010F0FF00287017D018E000F0D9FD194873
:1020D000008838B1FEF738F92046FEF72BF800F0FB
:1020E0009DFD04E0FEF730F92046FEF723F843F6A5
:1020F000FF20388000209AE700F0C2FDFEF724F9A7
:102100003046FEF717F85FEA084001D4FFF732F8CF
:10211000FEF70CF80546FEF707F9246AFEF714F9F6
:102120002846FEF707F8A7F8009020467FE7000052
:10213000A80000206C00002070B50025C0F88410B5
:1021400080F8355080F834500446026490F8360028
:1021500008280ED2DFE800F00D0D04040D0D0A0A68
:10216000204601F067F984F8365002E0042084F834
:1021700036002046BDE8704000F059BB0A4C0B4DBC
:10218000FDF7D4FF0646FEF7CFF82068401C20601C
:102190002868401C2860FEF7D7F83046FDF7CAFFD4
:1021A000FEF7BCFEECE7000054000020C000002059
:1021B00000B50E4A89B0002111600B2205910691ED
:1021C000CDE907200A480B4A0B4B006812681B68D0
:1021D0000292CDE903011F20CDE900030023074A45
:1021E00007A10C48FFF7A2F909B000BD5400002078
:1021F000204300081C430008184300087D21000804
:1022000075432F4F532D4949492049646C6520542B
:1022100061736B00D43100202DE9F84F1D46DDE9D4
:102220000CB4DDE90AA916460F468046FDF77EFF8D
:102230000090FEF779F81D481D4A018812889142E6
:102240002DD2491C89B201801A4802888A4200D2E4
:10225000018019490868C0F80080C0E9027605824B
:10226000C0F814A0A0F81890C0F81CB0406808602E
:10227000124801210181124901604160002000F0F3
:102280007BFB1048007808B10F49087000202080BF
:10229000FEF75AF80098BDE8F84FFDF74BBF0B4921
:1022A0000888401C088044F25360F0E76C0000206E
:1022B000284300086E0000206400002070330020D6
:1022C0009C3200208E000020900000207000002032
:1022D0003EB5374C374B02A920680268D51A9A429E
:1022E00045D015DC344BD2182DD0344BD21822D027
:1022F000334BD21832D0334BDA4208D1C269CDE920
:102300000021038B028AC168806800F0F1FF3EBDA6
:102310002D4AAA181ED02D4BD21824D02C4BDA42AD
:10232000F5D1C269CDE90021038B028AC1688068BA
:1023300000F04EFB3EBD0091028BC369416980688D
:10234000FFF736FE3EBD018BC269806802AB00F02C
:10235000F5FC3EBD806801F07BF83EBD018BC26993
:10236000806802AB21E0806801F0C2F93EBD1948E7
:102370001949007800EB400001EB800000F09EFC62
:10238000206802AB0021C269144801F0EDF814483E
:102390000168491E0160E9D1124909680160FEF730
:1023A0001DF8024602AB00210F4801F0DDF83EBDEA
:1023B000680000205449434BADBAB2BE0DF90BFA88
:1023C000F2F8F7FF0006F6FF00F7FDF700FFEFFF5A
:1023D00003FE0FFE9000002070330020B83500206F
:1023E000F8000020F4000020803600201D4D1E4C17
:1023F0001E4E00BFFDF79AFE0746FDF795FF2088A9
:1024000008B3FDF7A1FF3846FDF794FEFDF7E6FFA0
:102410000746FFF75DFFFDF7E1FF2968C01B81421A
:1024200000D22860FDF782FE0746FDF77DFF306889
:10243000406830602088401E2080FDF785FF3846C8
:10244000FDF778FED6E70A49002008810860486059
:1024500000F0A2FAFDF778FF3846FDF76BFEFEF7B5
:1024600089FEC5E7740000206C0000206800002091
:1024700070330020F0B52F492F4D89B000220A801B
:10248000296831B12D4E3188022905D244F25461B8
:1024900035E044F2526132E029490023294F0A60B5
:1024A000296801F1200410E041F8087B5B1C41F829
:1024B000082B9BB241F8042C21F8102B41F80C2C6E
:1024C00021F8082C41F81C4C2034B6F800C06345B4
:1024D000EAD32B6841F81C3C1B490B601B490B607D
:1024E0001B490A801B490A801B490B6853B11B4BCF
:1024F0001B4D1C682D68AC4207D244F25661018026
:1025000009B0F0BD44F25561F9E703240592069243
:10251000CDE907401868134B09681B68CDE9030231
:102520000092CDE9011300230F4A10A11648FEF7CF
:10253000FDFFE5E770000020244300082843000861
:10254000740000204E4F4E456400002068000020BB
:102550006C0000206E0000202C430008344300086B
:102560005C43000830430008ED23000875432F4FFB
:10257000532D4949492049535220517565756520AD
:102580005461736B000000009C320020034A00215C
:102590001160034A11800180704700008000002014
:1025A00084000020F0B5164C216859B1154E3188D1
:1025B00059B189B2491E22688FB2002502F1100379
:1025C00029460EE045F21E7118E045F21D7115E036
:1025D000E2E802316D1C22F8081BADB242F8041C7F
:1025E0001033BD42F4D3116051601181D160064AAD
:1025F0002368136033889380D18011810180F0BDFE
:1026000044430008404300086433002010B5428969
:1026100092B10A4903680C681C6043680B60CB8860
:1026200044891B1BCB808B88448923448B800021E9
:102630004181818101604160104610BD64330020FA
:10264000018100214181818101604160704700006A
:10265000F0B54489DDE905E70589AC4202D346F2CD
:1026600093501EE01B4DAE88CEB12C68761ED4F878
:1026700000C0C5F800C0AE80EE88761CB6B2EE8011
:10268000B5F808C0B44500D22E814689002556B160
:10269000DB060ED403681C60046025600CE045F284
:1026A0001D703880F0BD04600123446043812560C3
:1026B00005E043682360446043895B1C438186894D
:1026C00043899E4200D2838161602281C4F80CE07C
:1026D0003D80F0BD64330020034A00211160034AAD
:1026E0001180018070470000880000208C000020CD
:1026F0002DE9F041114D07460C4628680026194681
:1027000080F8342080F8356000F03AFD64B1FC6058
:1027100004F1080601223946286800F011F839460C
:10272000304600F057F802E02868C6870663204666
:102730002968BDE8F04100F01BB80000FC00002053
:1027400010B5C2870024234601630EE04B6041F8B8
:10275000103B641C41F8103BA4B241F80C3C21F83A
:10276000083C41F8043C41F8180C9442EED310BDEB
:1027700038B14268C1F8C42081688968096AC161BA
:10278000704791F83400022803D0072803D004A032
:1027900002E004A000E005A0C1F8C40070470000FA
:1027A000200000005461736B205100005461736B72
:1027B0002053656D0000000005A2C1F8C4208168A7
:1027C00011B18968096A00E001A1C1617047000088
:1027D0002000000030B58A68002392F83740028953
:1027E0001AB1521C028102680BE0012202814B6087
:1027F0000B60016014E0956895F83750A54203D846
:102800005268002AF7D107E032B1146854B1C1E927
:1028100000426160116030BD4B6042680A605160E7
:10282000416030BD1160C1E90032016030BD70B55A
:102830000646C48F056B07E0E8682946083000F0BB
:1028400009F8641EA4B22035002CF5D10020F087D1
:10285000306370BD10B502890023012A0BD00A68CD
:1028600062B14C6874B1546022600289521E0281C8
:102870004B600B6010BD03604360F6E74A6813606D
:102880000260F2E753604260EFE7F8B50C46064697
:1028900091F836100025069808293BD2DFE801F0B0
:1028A0003A3A04043A3A202094F83410032911D01B
:1028B000E265A4F86030206436B12046FFF7B7FF28
:1028C00021463046FFF778FF204600F0B3FD84F83C
:1028D00036501BE000902146304600F022F8EBE72E
:1028E00094F83410032916D0E265A4F8603020640F
:1028F000204600F0F3FF36B12046FFF798FF21464F
:102900003046FFF759FF042084F8360084F835502C
:1029100084F83450F8BD00902146304600F001F8AC
:10292000E6E770B50C6B049DC98F0AE0E668864245
:1029300004D1C4E904022383E56170BD491E89B254
:1029400020340029F2D170BD10B50024064802E001
:102950002034E4B2001D01680029F9D00846FDF7D3
:10296000F0FB2044C0B210BD34000020014900201B
:10297000086070473400002000F01F024109012068
:10298000C2F11F029040034A52F82130034342F83B
:10299000213070473400002000F01F02410901205F
:1029A000C2F11F029040034A52F82130834342F89B
:1029B0002130704734000020034A00211160034A8F
:1029C00011800180704700009400002098000020D2
:1029D0002DE9FF4F83B01F46DDE9109A9346064666
:1029E000FDF7A4FB0546FDF79FFC384C2078401C02
:1029F000C0B22070012801D100F034F9FDF7A4FC29
:102A00002846FDF797FB358A06F108001DB1B90588
:102A100030D500683CE0F80601D4002300E0102324
:102A2000CDE9009A5A4606F120000499FFF710FEFE
:102A3000FDF77CFB0546FDF777FC2078401E10F083
:102A4000FF0121700ED100F01BF92148008848B128
:102A5000FDF77AFC2846FDF76DFB07B0BDE8F04FA7
:102A600000F0DCB8FDF770FC07B02846BDE8F04F79
:102A7000FDF760BB006801255B46D0E90181CDF818
:102A800000903046049AFFF700FF6D1E4046ADB23D
:102A9000002DF1D1FDF74AFB0546FDF745FC2078F6
:102AA000401E10F0FF00207001D100F0E9F8FDF7A2
:102AB0004BFC2846FDF73EFB380401D4FEF75AFBD9
:102AC0000021AAF8001007B0BDE8F08FA800002090
:102AD0006C0000200020074B014600BF00EB4002C5
:102AE00003EB8202401C11811160C0B251602028AA
:102AF000F4D370477033002010B5044690F83700C7
:102B0000FFF73AFF074994F83700097888422046D2
:102B100003D1BDE8104000F023B8BDE8104000F03C
:102B200003B800008E00002090F837100B4A01EB2C
:102B3000410102EB810100220B8943B15B1C0B8137
:102B40000B68C0E903320A6810610860704701230E
:102B50000B81C260026108604860704770330020DA
:102B600090F837100A4A01EB410102EB8101002283
:102B70000B893BB15B1C0B81C2604A680261D0606B
:102B80004860704701230B81C26002610860F7E76B
:102B90007033002010B50289002A14D0012A12D007
:102BA0000021022A07D0D0E90024D3681961C2E9C4
:102BB0000314E26005E0D0E90023C2E90313C3E98E
:102BC0000321C0E9003210BD70B5054690F837000A
:102BD000114900EB400001EB8001D5E9030200241C
:102BE00042B10B895B1E0B81D06090B102612C61F8
:102BF000EC6070BD28B10A89521E0A810461086028
:102C0000F5E70C810C604C6095F83700FFF7C4FEC7
:102C1000EDE74A60EBE700007033002010B5FDF7E8
:102C200085FA0B4A002111700B4A0A49116051F8CC
:102C3000902F521C0A6009490A68521C0A60084A0F
:102C40004FF080511160BDE81040FDF773BA0000ED
:102C50008F0000209C32002000010020D4000020C2
:102C600004ED00E0044810B50078012803D1FDF719
:102C7000B5FB0249086010BDA80000209C000020A0
:102C80000A4810B5007800280ED1FDF7A7FB0849C7
:102C90000968401A07490A68824200D2086006495A
:102CA0000A68824200D2086010BD0000A80000201F
:102CB0009C000020A0000020A400002070B5044665
:102CC00014480078012824D1FDF730FA0546FDF7B5
:102CD0002BFB2168B1B11048814213D08A6D12B12B
:102CE000521E8A650ED1208902280BD30B4800782A
:102CF00040B92046FFF74EFF2068416D09B90849E9
:102D000009688165FDF720FB2846BDE87040FDF7A6
:102D100011BA70BDB0000020D4310020A8000020FE
:102D2000AC000020034A00211160034A1180018099
:102D300070470000B4000020B80000202DE9F84FD3
:102D40001E46904689460446FDF7F0F90090FDF7CF
:102D5000EBFA208A04F108074FF0000B50B1DFF8BE
:102D6000BCA09AF80010491CC9B28AF800100129C9
:102D70001AD01BE0256A681C0CD06D1CC4E90858E9
:102D8000FDF7E2FA0098FDF7D5F9A6F800B028465D
:102D9000BDE8F88FFDF7D8FA0098FDF7CBF946F6B5
:102DA000C55030800020F3E7FFF75CFFFDF7CCFA59
:102DB0000098FDF7BFF95FEA895002D53D893F6869
:102DC0000CE03F6801250023B9687F681A46204659
:102DD000CDF80080FFF759FD6D1EADB2002DF2D188
:102DE000246AFDF7A3F90546FDF79EFA9AF800005C
:102DF000401E10F0FF008AF8000001D1FFF740FFED
:102E0000FDF7A2FA2846FDF795F95FEA094001D4DB
:102E1000FEF7B0F9A6F800B02046B9E7A8000020F8
:102E20000EB5964C964E2068450004E028466A464A
:102E30000021FEF721FF30780128F7D16846FEF720
:102E400097FA904822680168914206D90A4621689B
:102E5000B2FBF1F15FEA010803D100680A21B0FB7F
:102E6000F1F8DFF824B2894F42F2107A5FF00006E1
:102E7000FDF7B4FA0190FDF749FA85490860FDF7BE
:102E800055F90546FDF750FA8248834C01682160E8
:102E90000660FDF759FA2846FDF74CF97F4823688C
:102EA00002689A422BD97E48824202D250460121C2
:102EB00015E07C48824203D24FF47A700A210EE07A
:102EC0007948824202D26420014608E07748824273
:102ED00003D20A204FF47A7101E001205146B2FB7F
:102EE000F1F15843B0FBF1F0AAEB0000704980B259
:102EF000ABF800000A88824203D2088001E0ABF8F8
:102F000000A0FEF70BFB0024FDF710F98146FDF74A
:102F10000BFA3D6842E000BFFDF708F90290FDF7AB
:102F200003FADFF8909199F80010491CC9B289F8AA
:102F30000010012901D1FFF795FEFDF705FA02986F
:102F4000FDF7F8F8D5F89C00C5E92760FDF7EEF825
:102F50000290FDF7E9F999F80010491E11F0FF0100
:102F600089F800100CD1FFF78BFE5348008838B168
:102F7000FDF7EAF90298FDF7DDF8FFF74FFE04E0F0
:102F8000FDF7E2F90298FDF7D5F855F8A00F0444D3
:102F9000FDF7CCF88146FDF7C7F92D6AFDF7D4F9A6
:102FA0004846FDF7C7F8002DB6D12CB33C48844203
:102FB00002D25546012015E03A48844203D24FF42C
:102FC0007A750A200EE03848844202D264252846E9
:102FD00008E03648844203D20A254FF47A7001E0B3
:102FE00001255046B4FBF0F08146FDF79FF80290B2
:102FF000FDF79AF93C6822E000250120F4E700BFC4
:10300000D4F8A0006843B0FBF9F080B2504500D975
:103010005046A4F88C00B4F88E10814201D2A4F876
:103020008E0004F1AC026B46111D2046FEF738FD00
:10303000FDF77CF80290FDF777F9D4F8C040FDF772
:1030400083F90298FDF776F8002CD9D11B48017856
:10305000012903D106706846FEF78AF9FDF7BEF92B
:103060000199401A16490A68824200D208606A46ED
:1030700000214046FEF700FEFAE600004C4300083F
:10308000CC00002060430008BC000020D8000020D5
:103090005C000020C0000020C8000020C400002008
:1030A000801A060000093D00005A62020084D7170A
:1030B000BE000020A80000206C000020BA00002004
:1030C000D000002030B51D4A89B0002111601C4A93
:1030D00011601C4A11601C4A11701C4A11701C4A74
:1030E000136843B11B4B1C4D1C682D68AC4205D2C4
:1030F00046F62C6108E046F62B6105E0174C257872
:103100001F2D04D346F62A61018009B030BD032586
:1031100005910691CDE9075011481B6812680068B7
:10312000CDE90120CDE903312078009000230D4A3C
:103130000DA11248FEF7FAF9E7E70000C0000020F1
:10314000C8000020C4000020CC000020BA000020ED
:1031500050430008584300085C43000848430008F7
:1031600054430008212E000875432F4F532D494921
:10317000492053746174205461736B00F034002053
:1031800038B50446022531B16B46022200F03AFB05
:10319000BDF8000028B184F836502046FFF714FD32
:1031A00038BD032084F83600F7E70000074B002203
:1031B000C0F8BC20196829B1C0F8C010C1F8BC0023
:1031C00018607047C0F8C020FAE70000D80000205F
:1031D000D0E92F2100234AB181B1C2F8C010C1F853
:1031E000BC20C0F8C030C0F8BC307047054A116040
:1031F00009B1C1F8BC30C0F8C0307047C2F8C03067
:10320000F1E70000D8000020044A00211160044AC0
:103210001180044A1160018070470000D80000202E
:10322000DC000020D400002070B50025056085601A
:103230004560C560056145610446856129A0C4E912
:1032400007506562A562E5622563E5872564E5654B
:10325000A4F86050002104F16400FFF7F1F96567FC
:10326000A567C4F88050A4F888500020C4F88450A2
:1032700004EB8001401CCD6710F0FF00F8D06564BE
:10328000C4F8A450C4F8A850A56384F88A50C4F8C0
:10329000B050C4F8AC50A5874FF00040C4E9120507
:1032A00025656565A565A4F88C50A4F88E50C4F812
:1032B0009050C4F894503434FDF790F8C4E91905DF
:1032C000C4F88050C4F8845004F8015B202004F84E
:1032D000015B04F8015B04F8850B04A020C4C4E979
:1032E000005070BD3F5461736B000000200000006F
:1032F0002DE9FC5F9946DDE90C7692468B46054642
:10330000FCF714FF8046FDF70FF8474C2078401C6F
:10331000C0B22070012801D1FFF7A4FCFDF714F81A
:103320004046FCF707FF0DB9404805680020308093
:1033300095F83600DFF8F880082852D2DFE800F070
:103340000404262604042626CDE900764B46524680
:10335000594605F16400FFF77BF9FCF7E7FE0546E7
:10336000FCF7E2FF2078401E10F0FF01217031D100
:10337000FFF786FCB8F8000060B3FCF7E5FF2846CD
:10338000FCF7D8FEBDE8FC5FFFF748BC95F83400B9
:103390000228D9D153465A46294600200097FFF704
:1033A00074FAFCF7C3FE0546FCF7BEFF2078401E0A
:1033B00010F0FF01217001D1FFF762FCFCF7C4FFA0
:1033C0002846FCF7B7FE5FEA09402AD4BDE8FC5F57
:1033D000FDF7D0BEFCF7B8FF2846BDE8FC5FFCF760
:1033E000A9BEFCF7A3FE0546FCF79EFF2078401E11
:1033F00010F0FF0020700CD1FFF742FCB8F800007D
:1034000038B1FCF7A1FF2846FCF794FEFFF706FC55
:1034100004E0FCF799FF2846FCF78CFE46F62D6089
:103420003080BDE8FC9F0000A8000020FC000020C8
:103430006C00002010B5044600F050FA94F83600F5
:10344000400704D42046BDE81040FFF755BB10BD2F
:103450002DE9F0410D460446FCF768FE0746FCF7EF
:1034600063FF00262E8094F83600082864D2DFE837
:1034700000F0040404040D394955FCF765FF384693
:10348000FCF758FE47F25310288037E02F4D28787C
:10349000401CC0B22870012801D1FFF7E3FBFCF704
:1034A00053FF3846FCF746FE94F88A00401E10F0A1
:1034B000FF0084F88A0004D184F836602046FFF7C4
:1034C000B9FFFCF733FE0446FCF72EFF2878401EB8
:1034D00010F0FF01297001D1FFF7D2FBFCF734FF98
:1034E000204609E094F88A00401E10F0FF0084F89E
:1034F0008A001BD101200EE0FCF71CFEBDE8F04164
:10350000FDF738BE94F88A00401E10F0FF0084F8E2
:103510008A000BD1022084F8360007E094F88A0074
:10352000401E10F0FF0084F88A0003D0FCF70CFF67
:103530003846E1E70320EEE7FCF706FF3846FCF7E4
:10354000F9FD46F62D602880BDE8F081A800002036
:10355000044808B50068FEF7E3F969460020FEF765
:10356000E9F808BDFC0000202DE9F84F9846914687
:103570008B460646FCF7DAFD0546FCF7D5FE594CAE
:103580002078401CC0B22070012801D1FFF76AFBEF
:10359000FCF7DAFE2846FCF7CDFD0EB95248066866
:1035A0000020524FC6F84090A8F8000096F8360068
:1035B00046F6C55A082872D2DFE800F033332F2FC1
:1035C00033332F2FFCF7C0FE2846FCF7B3FDFFF77F
:1035D00025FB04E0FCF7B8FE2846FCF7ABFDA8F895
:1035E00000A00020BDE8F88F6D1C7564FCF79EFDFF
:1035F0000646FCF799FE2078401E10F0FF00207070
:1036000047D1FFF73DFB3888F0B3FCF79DFE30460D
:10361000FCF790FDFFF702FB62E096F83400072804
:1036200013D0756C681CDFD1FCF780FD0546FCF7F4
:103630007BFE2078401E10F0FF002070CAD1FFF7FB
:103640001FFB38880028C5D0BCE700231A46314646
:103650001846CDF80090FFF718F9756CFCF766FD79
:103660000646FCF761FE2078401E10F0FF00207037
:1036700001D1FFF705FBFCF767FE3046FCF75AFD6A
:103680005FEA0B402CD401E003E008E0FDF772FD97
:1036900026E0FCF759FE3046FCF74CFD20E0FCF735
:1036A00045FD0546FCF740FE2078401E10F0FF0067
:1036B00020700BD1FFF7E4FA388838B1FCF744FEEC
:1036C0002846FCF737FDFFF7A9FA04E0FCF73CFEBB
:1036D0002846FCF72FFD46F62D60A8F800000025CF
:1036E00028467FE7A8000020FC0000206C00002096
:1036F0002DE9F0410D460446FCF718FD0746FCF79E
:1037000013FE334804B90468016832488C4209D179
:10371000017839B1FCF718FE3846FCF70BFD46F688
:10372000635052E00021298094F8361001260829C0
:1037300044D2DFE801F0043133393B3B3B3B0546E3
:103740000078401CC0B22870012801D1FFF78AFA26
:10375000FCF7FAFD3846FCF7EDFC042084F836004F
:1037600084F88A602046FFF72FFAFCF7DFFC044656
:10377000FCF7DAFD2878401E10F0FF01297001D116
:10378000FFF77EFAFCF7E0FD4FEA0400FCF7D2FCFD
:10379000BDE8F041FDF7EEBC052000E0062084F80E
:1037A000360084F88A6005E00720F8E714F88A0FED
:1037B000401C2070FCF7C8FD3846E7E7FCF7C4FD65
:1037C0003846FCF7B7FC46F62D602880BDE8F0814E
:1037D000FC000020A800002010B500200146074C86
:1037E000074B06E004EBC002401C11609180D180C1
:1037F00080B21A889042F5D310BD0000C42E00207C
:1038000074430008F0B5324C47F27E262568002448
:10381000042A08D0B1B32E4E082A36680E440BD0C5
:10382000C0E9136115E04A1B521E12F5803F2AD8E9
:10383000521CC0E913120CE0826C0A44571B7F1E15
:103840008F4201D2C26400E0C664C16C4A1B0265AB
:103850008164204AC16C1288B1FBF2F602FB16119A
:103860001D4A89B202EBC102918889B11168F1B198
:10387000CE6C761B0E65076DB74212D94E6966B1E4
:103880003146F5E7FFE7C4640465C4611E80F0BDFE
:1038900044618461012110600BE0C0E90541486189
:1038A00005E08D6975B1C0E9051568618861918889
:1038B000491C9180D58889B28D4200D2D180C261E5
:1038C0001C80F0BDC0E9051488611060EFE70000BE
:1038D000E000002074430008C42E002010B5C26927
:1038E000002A15D0002101651368834204D1436981
:1038F000136033B1996104E0D0E90534636103B129
:103900009C6141618161C161C1649088401E908069
:1039100010BD000010B500200446064B064A04E026
:1039200003EBC001401CCC8080B211888842F7D3E1
:1039300010BD0000C42E0020744300082DE9F05F84
:10394000FCF7F4FB0446FCF7EFFC554D2878401CCF
:10395000C1B22970012901D1FFF784F9FCF7F4FC09
:103960002046FCF7E7FBFCF739FDDFF83881074616
:103970004D49D8F800004FF00009401CC8F800007D
:1039800009884FF0030AB0FBF1F201FB120047492E
:1039900080B24FF0040B51F8304074B394F8360005
:1039A0006669082851D2DFE800F050045011502910
:1039B0005036E06CD8F80010421A2265884246D191
:1039C00084F836902046FFF735FD3EE0E06CD8F8ED
:1039D0000010421A2265884239D1C4F85C90A4F8DC
:1039E0006090FCF7FBFC20642046FEF720FF204699
:1039F000FFF720FD84F8369023E028E0E06CD8F84B
:103A00000010421A2265884221D184F836B020463F
:103A1000FFF764FF19E0E06CD8F80010421A226545
:103A2000884214D1C4F85C90A4F86090FCF7D6FCEE
:103A300020642046FEF7FBFE2046FFF74FFF84F888
:103A400036B084F835A084F834903446A5E7FCF706
:103A5000C5FC1749C01B0A68824200D20860FCF707
:103A600065FB0446FCF760FC2878401E10F0FF015F
:103A700029700DD1FFF704F90E48008840B1FCF71A
:103A800063FC2046FCF756FBBDE8F05FFFF7C6B8C5
:103A9000FCF75AFC2046BDE8F05FFCF74BBB00008A
:103AA000A8000020E000002074430008C42E00207D
:103AB000E40000206C0000201CB5084C00216B467F
:103AC00001AA0846FDF734FFBDF800000028F5D133
:103AD00020780128F2D1FFF731FFEFE760000020E6
:103AE00030B504461A4889B00025056019480560BC
:103AF000FFF772FE1848016841B11849184B0A686F
:103B00001B689A4205D247F2132008E047F21220C0
:103B100005E0144A13781F2B04D347F211202080AC
:103B200009B030BD0B2305950695CDE907340E4B42
:103B3000096800681B68CDE90103CDE90315107819
:103B400000900023094A0AA10E48FDF7EFFCE7E7C1
:103B5000E0000020E40000206843000870430008F3
:103B60005C430008644300086C430008B93A00084D
:103B700075432F4F532D494949205469636B205495
:103B800061736B00B835002030B52A4A89B0002136
:103B9000294B1160294C2A4A1D681DB12468B4FBC9
:103BA000F5F303E023680A24B3FBF4F313601A4629
:103BB000244B274D274C1A60234A1160234A116079
:103BC000002206E005EBC203521C9980D98092B214
:103BD000196023889A42F5D31F4B1A6842B11F4AD5
:103BE0001F4D14682D68AC4205D247F2483108E0F9
:103BF00047F2473105E01B4C25781F2D04D347F2CF
:103C00004631018009B030BD0B2505910691CDE903
:103C100007501068144A1B681268CDE90301CDE90A
:103C20000132207800900023104A11A11648FDF7B8
:103C30007DFCE7E7E80000207843000860430008C7
:103C4000F4000020F8000020F0000020EC0000202C
:103C50004C310020884300087C430008844300085E
:103C60005C43000876430008804300084D3D00088F
:103C700075432F4F532D4949492054696D65722072
:103C80005461736B000000008036002070B5022282
:103C900080F82A20204A012914681ED0016AE1B167
:103CA0001E4A214481611288B1FBF2F302FB131218
:103CB0001B4B92B203EBC202002315687DB1091BB6
:103CC000C1611168D1B18D692D1BCD61C669AE424C
:103CD0000ED90D6945B12946F5E7416AE0E7036170
:103CE0004361106001200BE0C0E90431086105E088
:103CF0004C6964B1C0E90414206148619088401C9B
:103D00009080D18880B2814200D2D08070BDC0E95D
:103D1000041348611060F1E7F000002088430008B8
:103D20004C31002010B500200446064B064A04E042
:103D300003EBC001401CCC8080B211888842F7D3CD
:103D400010BD00004C310020884300081CB5DFF88E
:103D50009090DFF890A0244DDFF890B000216B46E2
:103D600001AA0846FDF7E4FD6846FDF741FAFCF7B5
:103D700035FB064628684FF00308401C2860B9F858
:103D80000010B0FBF1F201FB120080B25AF8304093
:103D9000C4B1A06929682769884213D1204600F080
:103DA00027F8208D022808D084F82A80A26812B152
:103DB0002046E16890473C46EAE701212046FFF7AC
:103DC00065FFF3E7FCF70AFB841B6846FDF76AFA18
:103DD000DBF80010A142C1D2CBF80040BEE70000E2
:103DE000884300084C310020F0000020EC00002047
:103DF00010B5104A81691288B1FBF2F302FB13116E
:103E00000D4A89B202EBC1020023146801698442A1
:103E100003D1116029B14B6103E04469216101B113
:103E20004C61012180F82A10036143619088401E93
:103E3000908010BD884300084C310020704730B599
:103E40008FB028216846FCF78EF914210AA8FCF7E8
:103E50008AF901210804CDE900100024029402250A
:103E60000491CDE907504FF4E01009906846FCF743
:103E70002DFD0F20CDE90A056802CDE90C40022195
:103E80000AA80E94FCF730FC0FB030BD704700005C
:103E900070B5044600680169E26821F4405111439D
:103EA00001612169A0680843616908432168CA6803
:103EB00041F20C639A430243CA6020684169A269D7
:103EC00021F44071114341611E492068884202D1AA
:103ED000FCF7B6FC01E0FCF7A3FC00EBC00101EB32
:103EE0000012606864218000B2FBF0F3B3FBF1F3D1
:103EF0006FF018067343B2FBF0F5B2FBF0F605EB7A
:103F00008305322303EB0515B5FBF1F5B6FBF1F69E
:103F100005F0F00505EB0615B2FBF0F6B2FBF0F08C
:103F2000B0FBF1F06FF01802504306EB800003EB9A
:103F30000010B0FBF1F0216800F00F002844886009
:103F400070BD0000003801402DE9F0419846174649
:103F50000E460446069D1DE0681C1BD02DB1FCF7E3
:103F60003BFBA0EB0800A84214D92068C16821F4EB
:103F7000D071C1602068416921F0010141612020B8
:103F800084F83D0084F83E00002084F83C000320C3
:103F9000BDE8F0812068006836EA000004D0002007
:103FA000B842D9D00020F3E70120F9E7FEE700008E
:103FB000014A024900F023B8214000080401002012
:103FC0000907090E002804DB00F1E02080F8001446
:103FD000704700F00F0000F1E02080F8141D7047DA
:103FE00002E008C8121F08C1002AFAD170477047C2
:103FF000002001E001C1121F002AFBD170472DE90A
:10400000F04116460F460446002503E03946B04706
:10401000641C6D1C20780028F8D12846BDE8F0818A
:1040200013B54FF6FF73012269460248FCF75CFEA8
:1040300000981CBDA80800200EB5FCF7F3F8FCF7AB
:1040400009F9FCF721FF02A8FDF70EFAFCF74EF97B
:104050000E4E002502AC002201213046FCF7B6FAD4
:104060000023CDE90054032219461846FDF77AFED5
:10407000012211463046FCF7A9FA0023CDE900548D
:10408000032219461846FDF76DFEE4E7000C0140D7
:104090000EB5FCF7C7F8FCF7DDF8FCF7F5FE02A853
:1040A000FDF7E2F9FCF722F90F4F002502AC4FF4BF
:1040B0000056002231463846FCF788FA0023CDE945
:1040C0000054012219461846FDF74CFE01223146E4
:1040D0003846FCF77BFA0023CDE90054012219464B
:1040E0001846FDF73FFEE4E70010014010B58AB026
:1040F00009A8FCF71BFFFCF775FAFFF7A0FEFCF719
:10410000A1FE002006AB09AA0321059083E8070061
:1041100060220923094CCDE90232CDE90014049054
:104120000346074A07A104F59060FDF7FFF909A8C7
:10413000FDF7F2F80AB0002010BD000008010020D1
:10414000B14100087374617274207461736B000074
:104150000EB5FCF767F8FCF77DF8FCF795FE02A8B2
:10416000FDF782F9FCF7C2F8002402AD05A0FFF7C5
:104170001FFF0023022219461846CDE90045FDF72E
:10418000F1FDF3E768656C6C6F2075632F4F532169
:1041900020BBB6D3ADC0B4B5BD52544F53B6E0C882
:1041A000CECEF1BBB7BEB3A3A1200D0A0000000024
:1041B0002DE9F0438BB0FCF735F809A8FDF754F969
:1041C000FCF794F8012109AA0846FDF73FF8FBF730
:1041D000ADFF0446FCF7A8F8DFF8E09099F800007E
:1041E000401CC2B289F80020012A01D1FEF73AFD35
:1041F000FCF7AAF82046FBF79DFF00244FF00308C8
:10420000CDE9064809AE2E4801A9402706250896A3
:104210000594049481E8A100042000902346294AD3
:1042200029A12C48FDF782F9CDE906482A4801A9C1
:1042300008960594049481E8A10005200090254883
:104240000023264A26A1C830FDF770F9CDE90648BB
:10425000254801A908960594049481E8A10000234B
:10426000224A23A100F556700095FDF75FF9194821
:1042700009A9C838FFF73CFAFBF758FF0446FCF7DA
:1042800053F899F80000401E10F0FF0289F8002052
:104290000ED1FEF7F5FC1948008848B1FCF754F838
:1042A0002046FBF747FFFEF7B9FC0BB0BDE8F083F3
:1042B000FCF74AF82046FBF73DFFF6E7A800002090
:1042C00088020020914000086C65645F70633133A0
:1042D000000000005006002088030020394000083C
:1042E0006C65645F706230008804002051410008F2
:1042F00073656E645F6D7367000000006C000020E2
:104300000000000000000000010203040607080985
:104310000000000001020304441D00200C00000006
:1043200080000000441F00200A00000084200020BC
:104330000C000000800000008422002080000000AB
:1043400064000000842400200B0000000A0000002C
:10435000C42A00200C000000800000004000000083
:10436000E80300000A000000C42C00200C0000003C
:104370008000000011000B000A0000004C2F0020FC
:104380000C0000008000000011000000AC43000899
:104390000000002008010000E03F0008B4440008CD
:1043A00008010020403A0000F03F00080100000032
:1043B00010000000000000000024F40000000000D5
:1043C00000000000000000000000000000000000ED
:1043D00000000000000000000000000000000000DD
:1043E00000000000000000000000000000000000CD
:1043F00000000000000000000000000000000000BD
:1044000000000000000000000000000000000000AC
:10441000000000000000000000000000000000009C
:10442000000000000000000000000000000000008C
:10443000000000000000000000000000000000007C
:10444000000000000000000000000000000000006C
:10445000000000000000000000000000000000005C
:10446000000000000000000000000000000000004C
:10447000000000000000000000000000000000003C
:10448000000000000000000000000000000000002C
:10449000000000000000000000000000000000001C
:1044A000000000000000000000000000000000000C
:0444B0000000000008
:04000005080000ED02
:00000001FF
